{
  "_format": "hh-sol-artifact-1",
  "contractName": "Borrower",
  "sourceName": "contracts/Borrower.sol",
  "abi": [
    {
      "inputs": [
        {
          "internalType": "address",
          "name": "_lenderAddress",
          "type": "address"
        }
      ],
      "stateMutability": "nonpayable",
      "type": "constructor"
    },
    {
      "anonymous": false,
      "inputs": [
        {
          "indexed": true,
          "internalType": "address",
          "name": "borrower",
          "type": "address"
        },
        {
          "indexed": false,
          "internalType": "uint256",
          "name": "amount",
          "type": "uint256"
        },
        {
          "indexed": false,
          "internalType": "uint256",
          "name": "deadline",
          "type": "uint256"
        },
        {
          "indexed": false,
          "internalType": "uint256",
          "name": "collateral",
          "type": "uint256"
        }
      ],
      "name": "LoanRequested",
      "type": "event"
    },
    {
      "anonymous": false,
      "inputs": [
        {
          "indexed": true,
          "internalType": "address",
          "name": "borrower",
          "type": "address"
        },
        {
          "indexed": false,
          "internalType": "uint256",
          "name": "amount",
          "type": "uint256"
        },
        {
          "indexed": false,
          "internalType": "uint256",
          "name": "loanId",
          "type": "uint256"
        }
      ],
      "name": "Repaid",
      "type": "event"
    },
    {
      "inputs": [
        {
          "internalType": "uint256",
          "name": "",
          "type": "uint256"
        }
      ],
      "name": "Paid",
      "outputs": [
        {
          "internalType": "bool",
          "name": "",
          "type": "bool"
        }
      ],
      "stateMutability": "view",
      "type": "function"
    },
    {
      "inputs": [],
      "name": "getBalance",
      "outputs": [
        {
          "internalType": "uint256",
          "name": "",
          "type": "uint256"
        }
      ],
      "stateMutability": "view",
      "type": "function"
    },
    {
      "inputs": [
        {
          "internalType": "address",
          "name": "_borrower",
          "type": "address"
        }
      ],
      "name": "getMyLoans",
      "outputs": [
        {
          "internalType": "uint256[]",
          "name": "",
          "type": "uint256[]"
        }
      ],
      "stateMutability": "view",
      "type": "function"
    },
    {
      "inputs": [],
      "name": "lender",
      "outputs": [
        {
          "internalType": "contract ILender",
          "name": "",
          "type": "address"
        }
      ],
      "stateMutability": "view",
      "type": "function"
    },
    {
      "inputs": [
        {
          "internalType": "address",
          "name": "",
          "type": "address"
        },
        {
          "internalType": "uint256",
          "name": "",
          "type": "uint256"
        }
      ],
      "name": "myLoans",
      "outputs": [
        {
          "internalType": "uint256",
          "name": "",
          "type": "uint256"
        }
      ],
      "stateMutability": "view",
      "type": "function"
    },
    {
      "inputs": [
        {
          "internalType": "uint256",
          "name": "_loanId",
          "type": "uint256"
        }
      ],
      "name": "repayLoan",
      "outputs": [],
      "stateMutability": "payable",
      "type": "function"
    },
    {
      "inputs": [
        {
          "internalType": "uint256",
          "name": "_amount",
          "type": "uint256"
        },
        {
          "internalType": "uint256",
          "name": "_deadline",
          "type": "uint256"
        }
      ],
      "name": "requestLoan",
      "outputs": [],
      "stateMutability": "payable",
      "type": "function"
    },
    {
      "stateMutability": "payable",
      "type": "receive"
    }
  ],
  "bytecode": "0x608060405234801561001057600080fd5b50604051610e29380380610e29833981810160405281019061003291906100db565b806000806101000a81548173ffffffffffffffffffffffffffffffffffffffff021916908373ffffffffffffffffffffffffffffffffffffffff16021790555050610108565b600080fd5b600073ffffffffffffffffffffffffffffffffffffffff82169050919050565b60006100a88261007d565b9050919050565b6100b88161009d565b81146100c357600080fd5b50565b6000815190506100d5816100af565b92915050565b6000602082840312156100f1576100f0610078565b5b60006100ff848285016100c6565b91505092915050565b610d12806101176000396000f3fe6080604052600436106100745760003560e01c8063906324401161004e578063906324401461015e578063aa452fa61461019b578063ab7b1c89146101b7578063bcead63e146101d3576100b4565b806312065fe0146100b9578063581d416a146100e45780636890580614610121576100b4565b366100b4576040517f08c379a00000000000000000000000000000000000000000000000000000000081526004016100ab90610763565b60405180910390fd5b600080fd5b3480156100c557600080fd5b506100ce6101fe565b6040516100db919061079c565b60405180910390f35b3480156100f057600080fd5b5061010b600480360381019061010691906107e8565b610206565b6040516101189190610830565b60405180910390f35b34801561012d57600080fd5b50610148600480360381019061014391906108a9565b610226565b604051610155919061079c565b60405180910390f35b34801561016a57600080fd5b50610185600480360381019061018091906108e9565b610257565b60405161019291906109d4565b60405180910390f35b6101b560048036038101906101b091906109f6565b6102ee565b005b6101d160048036038101906101cc91906107e8565b610494565b005b3480156101df57600080fd5b506101e86106e2565b6040516101f59190610a95565b60405180910390f35b600047905090565b60016020528060005260406000206000915054906101000a900460ff1681565b6002602052816000526040600020818154811061024257600080fd5b90600052602060002001600091509150505481565b6060600260008373ffffffffffffffffffffffffffffffffffffffff1673ffffffffffffffffffffffffffffffffffffffff1681526020019081526020016000208054806020026020016040519081016040528092919081815260200182805480156102e257602002820191906000526020600020905b8154815260200190600101908083116102ce575b50505050509050919050565b60003411610331576040517f08c379a000000000000000000000000000000000000000000000000000000000815260040161032890610afc565b60405180910390fd5b60008060009054906101000a900473ffffffffffffffffffffffffffffffffffffffff1673ffffffffffffffffffffffffffffffffffffffff1663aea48ea9343386866040518563ffffffff1660e01b815260040161039293929190610b2b565b60206040518083038185885af11580156103b0573d6000803e3d6000fd5b50505050506040513d601f19601f820116820180604052508101906103d59190610b77565b9050600260003373ffffffffffffffffffffffffffffffffffffffff1673ffffffffffffffffffffffffffffffffffffffff1681526020019081526020016000208190806001815401808255809150506001900390600052602060002001600090919091909150553373ffffffffffffffffffffffffffffffffffffffff167f470e775e4fa2bd975947314dc912d0dd85338d809a6b967e36382e32a3b6f2bb84843460405161048793929190610ba4565b60405180910390a2505050565b6001600082815260200190815260200160002060009054906101000a900460ff16156104f5576040517f08c379a00000000000000000000000000000000000000000000000000000000081526004016104ec90610c27565b60405180910390fd5b60008060009054906101000a900473ffffffffffffffffffffffffffffffffffffffff1673ffffffffffffffffffffffffffffffffffffffff1663226546a4836040518263ffffffff1660e01b8152600401610551919061079c565b602060405180830381865afa15801561056e573d6000803e3d6000fd5b505050506040513d601f19601f820116820180604052508101906105929190610b77565b9050803410156105d7576040517f08c379a00000000000000000000000000000000000000000000000000000000081526004016105ce90610c93565b60405180910390fd5b60008054906101000a900473ffffffffffffffffffffffffffffffffffffffff1673ffffffffffffffffffffffffffffffffffffffff1663a6ffc78a34846040518363ffffffff1660e01b8152600401610631919061079c565b6000604051808303818588803b15801561064a57600080fd5b505af115801561065e573d6000803e3d6000fd5b5050505050600180600084815260200190815260200160002060006101000a81548160ff0219169083151502179055503373ffffffffffffffffffffffffffffffffffffffff167f1b8cd61ed43bec7c6bdad3a18ffee613f99c853d16c50678d248d879e1b4343834846040516106d6929190610cb3565b60405180910390a25050565b60008054906101000a900473ffffffffffffffffffffffffffffffffffffffff1681565b600082825260208201905092915050565b7f446972656374207472616e7366657273206e6f7420616c6c6f77656400000000600082015250565b600061074d601c83610706565b915061075882610717565b602082019050919050565b6000602082019050818103600083015261077c81610740565b9050919050565b6000819050919050565b61079681610783565b82525050565b60006020820190506107b1600083018461078d565b92915050565b600080fd5b6107c581610783565b81146107d057600080fd5b50565b6000813590506107e2816107bc565b92915050565b6000602082840312156107fe576107fd6107b7565b5b600061080c848285016107d3565b91505092915050565b60008115159050919050565b61082a81610815565b82525050565b60006020820190506108456000830184610821565b92915050565b600073ffffffffffffffffffffffffffffffffffffffff82169050919050565b60006108768261084b565b9050919050565b6108868161086b565b811461089157600080fd5b50565b6000813590506108a38161087d565b92915050565b600080604083850312156108c0576108bf6107b7565b5b60006108ce85828601610894565b92505060206108df858286016107d3565b9150509250929050565b6000602082840312156108ff576108fe6107b7565b5b600061090d84828501610894565b91505092915050565b600081519050919050565b600082825260208201905092915050565b6000819050602082019050919050565b61094b81610783565b82525050565b600061095d8383610942565b60208301905092915050565b6000602082019050919050565b600061098182610916565b61098b8185610921565b935061099683610932565b8060005b838110156109c75781516109ae8882610951565b97506109b983610969565b92505060018101905061099a565b5085935050505092915050565b600060208201905081810360008301526109ee8184610976565b905092915050565b60008060408385031215610a0d57610a0c6107b7565b5b6000610a1b858286016107d3565b9250506020610a2c858286016107d3565b9150509250929050565b6000819050919050565b6000610a5b610a56610a518461084b565b610a36565b61084b565b9050919050565b6000610a6d82610a40565b9050919050565b6000610a7f82610a62565b9050919050565b610a8f81610a74565b82525050565b6000602082019050610aaa6000830184610a86565b92915050565b7f436f6c6c61746572616c20697320726571756972656400000000000000000000600082015250565b6000610ae6601683610706565b9150610af182610ab0565b602082019050919050565b60006020820190508181036000830152610b1581610ad9565b9050919050565b610b258161086b565b82525050565b6000606082019050610b406000830186610b1c565b610b4d602083018561078d565b610b5a604083018461078d565b949350505050565b600081519050610b71816107bc565b92915050565b600060208284031215610b8d57610b8c6107b7565b5b6000610b9b84828501610b62565b91505092915050565b6000606082019050610bb9600083018661078d565b610bc6602083018561078d565b610bd3604083018461078d565b949350505050565b7f4c6f616e20616c72656164792072657061696400000000000000000000000000600082015250565b6000610c11601383610706565b9150610c1c82610bdb565b602082019050919050565b60006020820190508181036000830152610c4081610c04565b9050919050565b7f416d6f756e74206973206e6f7420656e6f756768000000000000000000000000600082015250565b6000610c7d601483610706565b9150610c8882610c47565b602082019050919050565b60006020820190508181036000830152610cac81610c70565b9050919050565b6000604082019050610cc8600083018561078d565b610cd5602083018461078d565b939250505056fea2646970667358221220f78afb787621dafc8116feef5a9aa6c5a770691bc19ccb639061aca32e854d2864736f6c634300081c0033",
  "linkReferences": {},
  "deployedLinkReferences": {}
}