{
  "_format": "hh-sol-artifact-1",
  "contractName": "Lender",
  "sourceName": "contracts/Lender.sol",
  "abi": [
    {
      "inputs": [],
      "stateMutability": "payable",
      "type": "constructor"
    },
    {
      "anonymous": false,
      "inputs": [
        {
          "indexed": true,
          "internalType": "address",
          "name": "borrower",
          "type": "address"
        },
        {
          "indexed": false,
          "internalType": "uint256",
          "name": "loanId",
          "type": "uint256"
        },
        {
          "indexed": false,
          "internalType": "uint256",
          "name": "collateral",
          "type": "uint256"
        }
      ],
      "name": "collateralLiquidated",
      "type": "event"
    },
    {
      "anonymous": false,
      "inputs": [
        {
          "indexed": true,
          "internalType": "address",
          "name": "borrower",
          "type": "address"
        },
        {
          "indexed": false,
          "internalType": "uint256",
          "name": "loanId",
          "type": "uint256"
        },
        {
          "indexed": false,
          "internalType": "uint256",
          "name": "collateral",
          "type": "uint256"
        }
      ],
      "name": "collateralLocked",
      "type": "event"
    },
    {
      "anonymous": false,
      "inputs": [
        {
          "indexed": true,
          "internalType": "address",
          "name": "borrower",
          "type": "address"
        },
        {
          "indexed": false,
          "internalType": "uint256",
          "name": "loanId",
          "type": "uint256"
        },
        {
          "indexed": false,
          "internalType": "uint256",
          "name": "collateral",
          "type": "uint256"
        }
      ],
      "name": "collateralReleased",
      "type": "event"
    },
    {
      "anonymous": false,
      "inputs": [
        {
          "indexed": true,
          "internalType": "address",
          "name": "borrower",
          "type": "address"
        },
        {
          "indexed": true,
          "internalType": "uint256",
          "name": "amount",
          "type": "uint256"
        },
        {
          "indexed": true,
          "internalType": "uint256",
          "name": "deadline",
          "type": "uint256"
        },
        {
          "indexed": false,
          "internalType": "uint256",
          "name": "loanId",
          "type": "uint256"
        }
      ],
      "name": "funded",
      "type": "event"
    },
    {
      "anonymous": false,
      "inputs": [
        {
          "indexed": true,
          "internalType": "address",
          "name": "borrower",
          "type": "address"
        },
        {
          "indexed": false,
          "internalType": "bool",
          "name": "status",
          "type": "bool"
        },
        {
          "indexed": true,
          "internalType": "uint256",
          "name": "amount",
          "type": "uint256"
        },
        {
          "indexed": false,
          "internalType": "uint256",
          "name": "collateral",
          "type": "uint256"
        }
      ],
      "name": "repaid",
      "type": "event"
    },
    {
      "inputs": [
        {
          "internalType": "uint256",
          "name": "_loanId",
          "type": "uint256"
        }
      ],
      "name": "ApproveLoan",
      "outputs": [],
      "stateMutability": "nonpayable",
      "type": "function"
    },
    {
      "inputs": [
        {
          "internalType": "uint256",
          "name": "_amount",
          "type": "uint256"
        },
        {
          "internalType": "uint256",
          "name": "collateralValue",
          "type": "uint256"
        }
      ],
      "name": "CalculateCollateral",
      "outputs": [
        {
          "internalType": "uint256",
          "name": "",
          "type": "uint256"
        }
      ],
      "stateMutability": "pure",
      "type": "function"
    },
    {
      "inputs": [
        {
          "internalType": "uint256",
          "name": "_loanId",
          "type": "uint256"
        }
      ],
      "name": "Repay",
      "outputs": [],
      "stateMutability": "payable",
      "type": "function"
    },
    {
      "inputs": [
        {
          "internalType": "address",
          "name": "_borrower",
          "type": "address"
        },
        {
          "internalType": "uint256",
          "name": "_amount",
          "type": "uint256"
        },
        {
          "internalType": "uint256",
          "name": "_deadline",
          "type": "uint256"
        }
      ],
      "name": "RequestLoan",
      "outputs": [
        {
          "internalType": "uint256",
          "name": "",
          "type": "uint256"
        }
      ],
      "stateMutability": "payable",
      "type": "function"
    },
    {
      "inputs": [
        {
          "internalType": "uint256",
          "name": "",
          "type": "uint256"
        }
      ],
      "name": "approval",
      "outputs": [
        {
          "internalType": "bool",
          "name": "",
          "type": "bool"
        }
      ],
      "stateMutability": "view",
      "type": "function"
    },
    {
      "inputs": [],
      "name": "collateralThreshold",
      "outputs": [
        {
          "internalType": "uint256",
          "name": "",
          "type": "uint256"
        }
      ],
      "stateMutability": "view",
      "type": "function"
    },
    {
      "inputs": [],
      "name": "getAllUsers",
      "outputs": [
        {
          "internalType": "address[]",
          "name": "borrowers",
          "type": "address[]"
        },
        {
          "internalType": "uint256[]",
          "name": "amounts",
          "type": "uint256[]"
        },
        {
          "internalType": "uint256[]",
          "name": "deadlines",
          "type": "uint256[]"
        },
        {
          "internalType": "uint256[]",
          "name": "collaterals",
          "type": "uint256[]"
        },
        {
          "internalType": "uint8[]",
          "name": "statuses",
          "type": "uint8[]"
        }
      ],
      "stateMutability": "view",
      "type": "function"
    },
    {
      "inputs": [],
      "name": "getBalance",
      "outputs": [
        {
          "internalType": "uint256",
          "name": "balance",
          "type": "uint256"
        }
      ],
      "stateMutability": "view",
      "type": "function"
    },
    {
      "inputs": [
        {
          "internalType": "uint256",
          "name": "_loanId",
          "type": "uint256"
        }
      ],
      "name": "getLoanAmount",
      "outputs": [
        {
          "internalType": "uint256",
          "name": "",
          "type": "uint256"
        }
      ],
      "stateMutability": "view",
      "type": "function"
    },
    {
      "inputs": [
        {
          "internalType": "uint256",
          "name": "_loanId",
          "type": "uint256"
        }
      ],
      "name": "getLoanDetails",
      "outputs": [
        {
          "internalType": "address",
          "name": "borrower",
          "type": "address"
        },
        {
          "internalType": "uint256",
          "name": "amount",
          "type": "uint256"
        },
        {
          "internalType": "uint256",
          "name": "deadline",
          "type": "uint256"
        },
        {
          "internalType": "uint256",
          "name": "collateral",
          "type": "uint256"
        },
        {
          "internalType": "enum Lender.LoanStatus",
          "name": "status",
          "type": "uint8"
        }
      ],
      "stateMutability": "view",
      "type": "function"
    },
    {
      "inputs": [
        {
          "internalType": "uint256",
          "name": "_loanId",
          "type": "uint256"
        }
      ],
      "name": "liqiudate",
      "outputs": [],
      "stateMutability": "nonpayable",
      "type": "function"
    },
    {
      "inputs": [],
      "name": "loanId",
      "outputs": [
        {
          "internalType": "uint256",
          "name": "",
          "type": "uint256"
        }
      ],
      "stateMutability": "view",
      "type": "function"
    },
    {
      "inputs": [
        {
          "internalType": "uint256",
          "name": "",
          "type": "uint256"
        }
      ],
      "name": "loans",
      "outputs": [
        {
          "internalType": "address",
          "name": "borrower",
          "type": "address"
        },
        {
          "internalType": "uint256",
          "name": "amount",
          "type": "uint256"
        },
        {
          "internalType": "uint256",
          "name": "deadline",
          "type": "uint256"
        },
        {
          "internalType": "uint256",
          "name": "collateral",
          "type": "uint256"
        },
        {
          "internalType": "enum Lender.LoanStatus",
          "name": "status",
          "type": "uint8"
        }
      ],
      "stateMutability": "view",
      "type": "function"
    },
    {
      "inputs": [],
      "name": "owner",
      "outputs": [
        {
          "internalType": "address",
          "name": "",
          "type": "address"
        }
      ],
      "stateMutability": "view",
      "type": "function"
    },
    {
      "inputs": [
        {
          "internalType": "uint256",
          "name": "",
          "type": "uint256"
        }
      ],
      "name": "users",
      "outputs": [
        {
          "internalType": "address",
          "name": "borrower",
          "type": "address"
        },
        {
          "internalType": "uint256",
          "name": "amount",
          "type": "uint256"
        },
        {
          "internalType": "uint256",
          "name": "deadline",
          "type": "uint256"
        },
        {
          "internalType": "uint256",
          "name": "collateral",
          "type": "uint256"
        },
        {
          "internalType": "enum Lender.LoanStatus",
          "name": "status",
          "type": "uint8"
        }
      ],
      "stateMutability": "view",
      "type": "function"
    },
    {
      "stateMutability": "payable",
      "type": "receive"
    }
  ],
  "bytecode": "0x60806040526096600155336000806101000a81548173ffffffffffffffffffffffffffffffffffffffff021916908373ffffffffffffffffffffffffffffffffffffffff160217905550612b97806100586000396000f3fe6080604052600436106100ec5760003560e01c80638da5cb5b1161008a578063c77e24da11610059578063c77e24da14610327578063c95669a514610350578063e1ec3c681461037b578063e2842d79146103bc576100f3565b80638da5cb5b146102855780638e8cfbde146102b0578063a6ffc78a146102db578063aea48ea9146102f7576100f3565b80633052ea08116100c65780633052ea0814610189578063365b98b2146101c657806366877b8d1461020757806380a765e414610248576100f3565b80630e5adb6a146100f857806312065fe014610121578063226546a41461014c576100f3565b366100f357005b600080fd5b34801561010457600080fd5b5061011f600480360381019061011a9190611c58565b6103eb565b005b34801561012d57600080fd5b506101366106c9565b6040516101439190611c94565b60405180910390f35b34801561015857600080fd5b50610173600480360381019061016e9190611c58565b6106d1565b6040516101809190611c94565b60405180910390f35b34801561019557600080fd5b506101b060048036038101906101ab9190611c58565b61085a565b6040516101bd9190611cca565b60405180910390f35b3480156101d257600080fd5b506101ed60048036038101906101e89190611c58565b61087a565b6040516101fe959493929190611d9d565b60405180910390f35b34801561021357600080fd5b5061022e60048036038101906102299190611c58565b6108ed565b60405161023f959493929190611d9d565b60405180910390f35b34801561025457600080fd5b5061026f600480360381019061026a9190611df0565b6109f2565b60405161027c9190611c94565b60405180910390f35b34801561029157600080fd5b5061029a610a14565b6040516102a79190611e30565b60405180910390f35b3480156102bc57600080fd5b506102c5610a38565b6040516102d29190611c94565b60405180910390f35b6102f560048036038101906102f09190611c58565b610a3e565b005b610311600480360381019061030c9190611e77565b610f99565b60405161031e9190611c94565b60405180910390f35b34801561033357600080fd5b5061034e60048036038101906103499190611c58565b6112a5565b005b34801561035c57600080fd5b5061036561183c565b6040516103729190611c94565b60405180910390f35b34801561038757600080fd5b506103a2600480360381019061039d9190611c58565b611842565b6040516103b3959493929190611d9d565b60405180910390f35b3480156103c857600080fd5b506103d16118a5565b6040516103e2959493929190612111565b60405180910390f35b3373ffffffffffffffffffffffffffffffffffffffff1660008054906101000a900473ffffffffffffffffffffffffffffffffffffffff1673ffffffffffffffffffffffffffffffffffffffff1614610479576040517f08c379a0000000000000000000000000000000000000000000000000000000008152600401610470906121e4565b60405180910390fd5b6000600360008381526020019081526020016000209050600160038111156104a4576104a3611d26565b5b8160040160009054906101000a900460ff1660038111156104c8576104c7611d26565b5b14610508576040517f08c379a00000000000000000000000000000000000000000000000000000000081526004016104ff90612250565b60405180910390fd5b8060020154421161054e576040517f08c379a0000000000000000000000000000000000000000000000000000000008152600401610545906122bc565b60405180910390fd5b60038160040160006101000a81548160ff0219169083600381111561057657610575611d26565b5b021790555060008060009054906101000a900473ffffffffffffffffffffffffffffffffffffffff1673ffffffffffffffffffffffffffffffffffffffff1682600301546040516105c69061230d565b60006040518083038185875af1925050503d8060008114610603576040519150601f19603f3d011682016040523d82523d6000602084013e610608565b606091505b505090508061064c576040517f08c379a00000000000000000000000000000000000000000000000000000000081526004016106439061236e565b60405180910390fd5b8160000160009054906101000a900473ffffffffffffffffffffffffffffffffffffffff1673ffffffffffffffffffffffffffffffffffffffff167f7bdcc372f30d930ec835a9940cc201702df9676d49a9b824e1050eb072da111f8484600301546040516106bc92919061238e565b60405180910390a2505050565b600047905090565b600080600360008481526020019081526020016000206040518060a00160405290816000820160009054906101000a900473ffffffffffffffffffffffffffffffffffffffff1673ffffffffffffffffffffffffffffffffffffffff1673ffffffffffffffffffffffffffffffffffffffff1681526020016001820154815260200160028201548152602001600382015481526020016004820160009054906101000a900460ff16600381111561078b5761078a611d26565b5b600381111561079d5761079c611d26565b5b815250509050600160038111156107b7576107b6611d26565b5b816080015160038111156107ce576107cd611d26565b5b1461080e576040517f08c379a000000000000000000000000000000000000000000000000000000000815260040161080590612403565b60405180910390fd5b60008160200151905081604001514211156108505760006064600a836108349190612452565b61083e91906124c3565b9050808261084c91906124f4565b9150505b8092505050919050565b60046020528060005260406000206000915054906101000a900460ff1681565b6005818154811061088a57600080fd5b90600052602060002090600502016000915090508060000160009054906101000a900473ffffffffffffffffffffffffffffffffffffffff16908060010154908060020154908060030154908060040160009054906101000a900460ff16905085565b600080600080600080600360008881526020019081526020016000206040518060a00160405290816000820160009054906101000a900473ffffffffffffffffffffffffffffffffffffffff1673ffffffffffffffffffffffffffffffffffffffff1673ffffffffffffffffffffffffffffffffffffffff1681526020016001820154815260200160028201548152602001600382015481526020016004820160009054906101000a900460ff1660038111156109ad576109ac611d26565b5b60038111156109bf576109be611d26565b5b81525050905080600001518160200151826040015183606001518460800151955095509550955095505091939590929450565b600082606483610a029190612452565b610a0c91906124c3565b905092915050565b60008054906101000a900473ffffffffffffffffffffffffffffffffffffffff1681565b60015481565b806003600082815260200190815260200160002060000160009054906101000a900473ffffffffffffffffffffffffffffffffffffffff1673ffffffffffffffffffffffffffffffffffffffff163373ffffffffffffffffffffffffffffffffffffffff1614610ae3576040517f08c379a0000000000000000000000000000000000000000000000000000000008152600401610ada90612574565b60405180910390fd5b6000600360008481526020019081526020016000209050600115156004600085815260200190815260200160002060009054906101000a900460ff16151514610b61576040517f08c379a0000000000000000000000000000000000000000000000000000000008152600401610b58906125e0565b60405180910390fd5b60016003811115610b7557610b74611d26565b5b8160040160009054906101000a900460ff166003811115610b9957610b98611d26565b5b14610bd9576040517f08c379a0000000000000000000000000000000000000000000000000000000008152600401610bd090612403565b60405180910390fd5b6000816001015490508160020154421115610c1b5760006064600a83610bff9190612452565b610c0991906124c3565b90508082610c1791906124f4565b9150505b80341015610c5e576040517f08c379a0000000000000000000000000000000000000000000000000000000008152600401610c559061264c565b60405180910390fd5b80341115610cbf5760008134610c74919061266c565b90503373ffffffffffffffffffffffffffffffffffffffff166108fc829081150290604051600060405180830381858888f19350505050158015610cbc573d6000803e3d6000fd5b50505b60028260040160006101000a81548160ff02191690836003811115610ce757610ce6611d26565b5b021790555060008060009054906101000a900473ffffffffffffffffffffffffffffffffffffffff1673ffffffffffffffffffffffffffffffffffffffff1682604051610d339061230d565b60006040518083038185875af1925050503d8060008114610d70576040519150601f19603f3d011682016040523d82523d6000602084013e610d75565b606091505b5050905080610db9576040517f08c379a0000000000000000000000000000000000000000000000000000000008152600401610db09061236e565b60405180910390fd5b60006003600087815260200190815260200160002060000160009054906101000a900473ffffffffffffffffffffffffffffffffffffffff1673ffffffffffffffffffffffffffffffffffffffff168460030154604051610e199061230d565b60006040518083038185875af1925050503d8060008114610e56576040519150601f19603f3d011682016040523d82523d6000602084013e610e5b565b606091505b5050905080610e9f576040517f08c379a0000000000000000000000000000000000000000000000000000000008152600401610e96906126ec565b60405180910390fd5b828460000160009054906101000a900473ffffffffffffffffffffffffffffffffffffffff1673ffffffffffffffffffffffffffffffffffffffff167ff666bac3123613fd913b319d2085f64b009f60bd44f7ff9893f3b15f868d718760018760030154604051610f1192919061270c565b60405180910390a38360000160009054906101000a900473ffffffffffffffffffffffffffffffffffffffff1673ffffffffffffffffffffffffffffffffffffffff167f9c75f054bca0711a7366fef8f89c6cf7e10bd0bf632e90d1f2faea688d4449bf878660030154604051610f8992919061238e565b60405180910390a2505050505050565b6000814210610fdd576040517f08c379a0000000000000000000000000000000000000000000000000000000008152600401610fd4906127a7565b60405180910390fd5b600073ffffffffffffffffffffffffffffffffffffffff168473ffffffffffffffffffffffffffffffffffffffff160361104c576040517f08c379a000000000000000000000000000000000000000000000000000000000815260040161104390612813565b60405180910390fd5b6000831161108f576040517f08c379a00000000000000000000000000000000000000000000000000000000081526004016110869061287f565b60405180910390fd5b600034116110d2576040517f08c379a00000000000000000000000000000000000000000000000000000000081526004016110c9906128eb565b60405180910390fd5b60006110de84346109f2565b9050600154811015611125576040517f08c379a000000000000000000000000000000000000000000000000000000000815260040161111c90612957565b60405180910390fd5b6040518060a001604052808673ffffffffffffffffffffffffffffffffffffffff1681526020018581526020018481526020013481526020016000600381111561117257611171611d26565b5b81525060036000600254815260200190815260200160002060008201518160000160006101000a81548173ffffffffffffffffffffffffffffffffffffffff021916908373ffffffffffffffffffffffffffffffffffffffff16021790555060208201518160010155604082015181600201556060820151816003015560808201518160040160006101000a81548160ff0219169083600381111561121a57611219611d26565b5b02179055509050508473ffffffffffffffffffffffffffffffffffffffff167f9bfb1b6eaece1f12c28b055da3ef51b4c2afcb3c5cb1a2a72bf04b9da88944246002543460405161126c92919061238e565b60405180910390a26002600081548092919061128790612977565b9190505550600160025461129b919061266c565b9150509392505050565b3373ffffffffffffffffffffffffffffffffffffffff1660008054906101000a900473ffffffffffffffffffffffffffffffffffffffff1673ffffffffffffffffffffffffffffffffffffffff1614611333576040517f08c379a000000000000000000000000000000000000000000000000000000000815260040161132a906121e4565b60405180910390fd5b6000600381111561134757611346611d26565b5b6003600083815260200190815260200160002060040160009054906101000a900460ff16600381111561137d5761137c611d26565b5b146113bd576040517f08c379a00000000000000000000000000000000000000000000000000000000081526004016113b490612a0b565b60405180910390fd5b6004600082815260200190815260200160002060009054906101000a900460ff161561141e576040517f08c379a000000000000000000000000000000000000000000000000000000000815260040161141590612a77565b60405180910390fd5b6003600082815260200190815260200160002060010154471015611477576040517f08c379a000000000000000000000000000000000000000000000000000000000815260040161146e90612ae3565b60405180910390fd5b60016004600083815260200190815260200160002060006101000a81548160ff02191690831515021790555060006003600083815260200190815260200160002060000160009054906101000a900473ffffffffffffffffffffffffffffffffffffffff1673ffffffffffffffffffffffffffffffffffffffff1660036000848152602001908152602001600020600101546040516115159061230d565b60006040518083038185875af1925050503d8060008114611552576040519150601f19603f3d011682016040523d82523d6000602084013e611557565b606091505b505090508061159b576040517f08c379a00000000000000000000000000000000000000000000000000000000081526004016115929061236e565b60405180910390fd5b60016003600084815260200190815260200160002060040160006101000a81548160ff021916908360038111156115d5576115d4611d26565b5b0217905550600360008381526020019081526020016000206002015460036000848152602001908152602001600020600101546003600085815260200190815260200160002060000160009054906101000a900473ffffffffffffffffffffffffffffffffffffffff1673ffffffffffffffffffffffffffffffffffffffff167f1d6fe99722ea72faf13f425d6f255a19b20d921633ab116e38b33de5075a7c81856040516116849190611c94565b60405180910390a460056040518060a001604052806003600086815260200190815260200160002060000160009054906101000a900473ffffffffffffffffffffffffffffffffffffffff1673ffffffffffffffffffffffffffffffffffffffff1681526020016003600086815260200190815260200160002060010154815260200160036000868152602001908152602001600020600201548152602001600360008681526020019081526020016000206003015481526020016003600086815260200190815260200160002060040160009054906101000a900460ff16600381111561177557611774611d26565b5b815250908060018154018082558091505060019003906000526020600020906005020160009091909190915060008201518160000160006101000a81548173ffffffffffffffffffffffffffffffffffffffff021916908373ffffffffffffffffffffffffffffffffffffffff16021790555060208201518160010155604082015181600201556060820151816003015560808201518160040160006101000a81548160ff0219169083600381111561183157611830611d26565b5b021790555050505050565b60025481565b60036020528060005260406000206000915090508060000160009054906101000a900473ffffffffffffffffffffffffffffffffffffffff16908060010154908060020154908060030154908060040160009054906101000a900460ff16905085565b6060806060806060600060058054905090508067ffffffffffffffff8111156118d1576118d0612b03565b5b6040519080825280602002602001820160405280156118ff5781602001602082028036833780820191505090505b5095508067ffffffffffffffff81111561191c5761191b612b03565b5b60405190808252806020026020018201604052801561194a5781602001602082028036833780820191505090505b5094508067ffffffffffffffff81111561196757611966612b03565b5b6040519080825280602002602001820160405280156119955781602001602082028036833780820191505090505b5093508067ffffffffffffffff8111156119b2576119b1612b03565b5b6040519080825280602002602001820160405280156119e05781602001602082028036833780820191505090505b5092508067ffffffffffffffff8111156119fd576119fc612b03565b5b604051908082528060200260200182016040528015611a2b5781602001602082028036833780820191505090505b50915060005b81811015611c145760058181548110611a4d57611a4c612b32565b5b906000526020600020906005020160000160009054906101000a900473ffffffffffffffffffffffffffffffffffffffff16878281518110611a9257611a91612b32565b5b602002602001019073ffffffffffffffffffffffffffffffffffffffff16908173ffffffffffffffffffffffffffffffffffffffff168152505060058181548110611ae057611adf612b32565b5b906000526020600020906005020160010154868281518110611b0557611b04612b32565b5b60200260200101818152505060058181548110611b2557611b24612b32565b5b906000526020600020906005020160020154858281518110611b4a57611b49612b32565b5b60200260200101818152505060058181548110611b6a57611b69612b32565b5b906000526020600020906005020160030154848281518110611b8f57611b8e612b32565b5b60200260200101818152505060058181548110611baf57611bae612b32565b5b906000526020600020906005020160040160009054906101000a900460ff166003811115611be057611bdf611d26565b5b838281518110611bf357611bf2612b32565b5b602002602001019060ff16908160ff16815250508080600101915050611a31565b50509091929394565b600080fd5b6000819050919050565b611c3581611c22565b8114611c4057600080fd5b50565b600081359050611c5281611c2c565b92915050565b600060208284031215611c6e57611c6d611c1d565b5b6000611c7c84828501611c43565b91505092915050565b611c8e81611c22565b82525050565b6000602082019050611ca96000830184611c85565b92915050565b60008115159050919050565b611cc481611caf565b82525050565b6000602082019050611cdf6000830184611cbb565b92915050565b600073ffffffffffffffffffffffffffffffffffffffff82169050919050565b6000611d1082611ce5565b9050919050565b611d2081611d05565b82525050565b7f4e487b7100000000000000000000000000000000000000000000000000000000600052602160045260246000fd5b60048110611d6657611d65611d26565b5b50565b6000819050611d7782611d55565b919050565b6000611d8782611d69565b9050919050565b611d9781611d7c565b82525050565b600060a082019050611db26000830188611d17565b611dbf6020830187611c85565b611dcc6040830186611c85565b611dd96060830185611c85565b611de66080830184611d8e565b9695505050505050565b60008060408385031215611e0757611e06611c1d565b5b6000611e1585828601611c43565b9250506020611e2685828601611c43565b9150509250929050565b6000602082019050611e456000830184611d17565b92915050565b611e5481611d05565b8114611e5f57600080fd5b50565b600081359050611e7181611e4b565b92915050565b600080600060608486031215611e9057611e8f611c1d565b5b6000611e9e86828701611e62565b9350506020611eaf86828701611c43565b9250506040611ec086828701611c43565b9150509250925092565b600081519050919050565b600082825260208201905092915050565b6000819050602082019050919050565b611eff81611d05565b82525050565b6000611f118383611ef6565b60208301905092915050565b6000602082019050919050565b6000611f3582611eca565b611f3f8185611ed5565b9350611f4a83611ee6565b8060005b83811015611f7b578151611f628882611f05565b9750611f6d83611f1d565b925050600181019050611f4e565b5085935050505092915050565b600081519050919050565b600082825260208201905092915050565b6000819050602082019050919050565b611fbd81611c22565b82525050565b6000611fcf8383611fb4565b60208301905092915050565b6000602082019050919050565b6000611ff382611f88565b611ffd8185611f93565b935061200883611fa4565b8060005b838110156120395781516120208882611fc3565b975061202b83611fdb565b92505060018101905061200c565b5085935050505092915050565b600081519050919050565b600082825260208201905092915050565b6000819050602082019050919050565b600060ff82169050919050565b61208881612072565b82525050565b600061209a838361207f565b60208301905092915050565b6000602082019050919050565b60006120be82612046565b6120c88185612051565b93506120d383612062565b8060005b838110156121045781516120eb888261208e565b97506120f6836120a6565b9250506001810190506120d7565b5085935050505092915050565b600060a082019050818103600083015261212b8188611f2a565b9050818103602083015261213f8187611fe8565b905081810360408301526121538186611fe8565b905081810360608301526121678185611fe8565b9050818103608083015261217b81846120b3565b90509695505050505050565b600082825260208201905092915050565b7f4e6f742061204f776e6572000000000000000000000000000000000000000000600082015250565b60006121ce600b83612187565b91506121d982612198565b602082019050919050565b600060208201905081810360008301526121fd816121c1565b9050919050565b7f4c6f616e206973204e6f74204163746976650000000000000000000000000000600082015250565b600061223a601283612187565b915061224582612204565b602082019050919050565b600060208201905081810360008301526122698161222d565b9050919050565b7f4e6f74206f766572647565000000000000000000000000000000000000000000600082015250565b60006122a6600b83612187565b91506122b182612270565b602082019050919050565b600060208201905081810360008301526122d581612299565b9050919050565b600081905092915050565b50565b60006122f76000836122dc565b9150612302826122e7565b600082019050919050565b6000612318826122ea565b9150819050919050565b7f5472616e73616374696f6e204661696c65640000000000000000000000000000600082015250565b6000612358601283612187565b915061236382612322565b602082019050919050565b600060208201905081810360008301526123878161234b565b9050919050565b60006040820190506123a36000830185611c85565b6123b06020830184611c85565b9392505050565b7f4c6f616e206973206e6f74204163746976650000000000000000000000000000600082015250565b60006123ed601283612187565b91506123f8826123b7565b602082019050919050565b6000602082019050818103600083015261241c816123e0565b9050919050565b7f4e487b7100000000000000000000000000000000000000000000000000000000600052601160045260246000fd5b600061245d82611c22565b915061246883611c22565b925082820261247681611c22565b9150828204841483151761248d5761248c612423565b5b5092915050565b7f4e487b7100000000000000000000000000000000000000000000000000000000600052601260045260246000fd5b60006124ce82611c22565b91506124d983611c22565b9250826124e9576124e8612494565b5b828204905092915050565b60006124ff82611c22565b915061250a83611c22565b925082820190508082111561252257612521612423565b5b92915050565b7f4e6f74206120426f72726f776572000000000000000000000000000000000000600082015250565b600061255e600e83612187565b915061256982612528565b602082019050919050565b6000602082019050818103600083015261258d81612551565b9050919050565b7f4c6f616e206973204e6f7420417070726f766564000000000000000000000000600082015250565b60006125ca601483612187565b91506125d582612594565b602082019050919050565b600060208201905081810360008301526125f9816125bd565b9050919050565b7f496e73756666696369656e742042616c616e6365000000000000000000000000600082015250565b6000612636601483612187565b915061264182612600565b602082019050919050565b6000602082019050818103600083015261266581612629565b9050919050565b600061267782611c22565b915061268283611c22565b925082820390508181111561269a57612699612423565b5b92915050565b7f436f6c6c61746572616c205472616e73666572204661696c6564000000000000600082015250565b60006126d6601a83612187565b91506126e1826126a0565b602082019050919050565b60006020820190508181036000830152612705816126c9565b9050919050565b60006040820190506127216000830185611cbb565b61272e6020830184611c85565b9392505050565b7f446561646c696e65206d7573742062652067726561746572207468616e20637560008201527f7272656e742074696d6500000000000000000000000000000000000000000000602082015250565b6000612791602a83612187565b915061279c82612735565b604082019050919050565b600060208201905081810360008301526127c081612784565b9050919050565b7f426f72726f776572206164647265737320697320726571756972656400000000600082015250565b60006127fd601c83612187565b9150612808826127c7565b602082019050919050565b6000602082019050818103600083015261282c816127f0565b9050919050565b7f416d6f756e74206d7573742062652067726561746572207468616e2030000000600082015250565b6000612869601d83612187565b915061287482612833565b602082019050919050565b600060208201905081810360008301526128988161285c565b9050919050565b7f436f6c6c61746572616c20697320726571756972656400000000000000000000600082015250565b60006128d5601683612187565b91506128e08261289f565b602082019050919050565b60006020820190508181036000830152612904816128c8565b9050919050565b7f4e6f742073756666696369656e7420436f6c6c61746572616c00000000000000600082015250565b6000612941601983612187565b915061294c8261290b565b602082019050919050565b6000602082019050818103600083015261297081612934565b9050919050565b600061298282611c22565b91507fffffffffffffffffffffffffffffffffffffffffffffffffffffffffffffffff82036129b4576129b3612423565b5b600182019050919050565b7f4c6f616e206973206e6f742050656e64696e6700000000000000000000000000600082015250565b60006129f5601383612187565b9150612a00826129bf565b602082019050919050565b60006020820190508181036000830152612a24816129e8565b9050919050565b7f4c6f616e20616c726561647920617070726f7665640000000000000000000000600082015250565b6000612a61601583612187565b9150612a6c82612a2b565b602082019050919050565b60006020820190508181036000830152612a9081612a54565b9050919050565b7f496e737566666963656e742062616c616e636520746f206c656e640000000000600082015250565b6000612acd601b83612187565b9150612ad882612a97565b602082019050919050565b60006020820190508181036000830152612afc81612ac0565b9050919050565b7f4e487b7100000000000000000000000000000000000000000000000000000000600052604160045260246000fd5b7f4e487b7100000000000000000000000000000000000000000000000000000000600052603260045260246000fdfea26469706673582212203e5a7eb5075cff5a845b4008fe04aad2b27804399ffe46a20556dc8b15b0a14c64736f6c634300081c0033",
  "linkReferences": {},
  "deployedLinkReferences": {}
}